:100000000C944B010C947C010C947C010C947C01AD
:100010000C947C010C947C010C947C010C947C016C
:100020000C947C010C947C010C947C010C947C015C
:100030000C947C010C947C010C947C010C947C014C
:100040000C947C010C947C010C947C010C947C013C
:100050000C947C010C947C010C947C010C9412098E
:100060000C947C010C94DC080C94B2080C947C0178
:100070000C947C010C947C010C947C010C947C010C
:100080000C947C010C947C010C947C010C947C01FC
:100090000C947C010C947C010C947C010C945C0904
:1000A0000C947C010C947C010C947C010C947C01DC
:1000B0000C947C010C947C010C947C010C947C01CC
:1000C0000C947C010C947C010C947C010C947C01BC
:1000D0000C947C010C947C010C947C010C947C01AC
:1000E0000C947C010C9437030C943F030C946E0326
:1000F0000C944C030C9415020C94E3060C94BE0271
:100100000C9462020C9456030C943B030C947605F9
:100110000C9452030C9442030C9433030C945A0332
:100120000C94800A0C9464030C9472030C94BD022A
:100130000C940F050C9499050C9421030C94600306
:100140000C9486050C94BF020C94C5010C947705A1
:100150000C94E7010C9467070C94D9010C944803A4
:100160000C94CD050C94B6010C9468030C94A00576
:100170000C941C0300002100240027002A002D00FD
:100180003000330001010000040107010A010000F2
:100190002200250028002B002E003100340002012F
:1001A0000000050108010B0100000A0B02090C0DFB
:1001B0000E0807030401000000000000000000001A
:1001C000000000000000000000000000000000002F
:1001D00000000000121110000000000000000000EC
:1001E000000000000000000000000000000000000F
:1001F00020002300260029002C002F0032000001DF
:1002000000000301060109010505050507050808A9
:100210000808020202020A0A080804040404010190
:1002200001010101010103030303030303030407A5
:1002300007070C0C0C0C0C0C0C0C0202020206063C
:100240000606060606060B0B0B0B0B0B0B0B01022F
:1002500010202008081020401020408002010201D8
:100260000804020101020408102040808040201090
:1002700008040201800402018040201008040201E9
:100280000804020101020408102040800102040851
:1002900010204080800A11241FBECFEFD1E2DEBFC4
:1002A000CDBF00E00CBF12E0A0E0B2E0E2E9FEE169
:1002B00000E00BBF02C007900D92A635B107D9F739
:1002C00023E0A6E5B2E001C01D92A13EB207E1F72E
:1002D00011E0CBE4D1E000E006C021970109802FB6
:1002E000FE010E943F0FCA34D10780E00807A9F73A
:1002F0000E94E70A0C94470F0C940000CF92DF9203
:10030000EF92FF92CF93DF93B091D503A0E08111DC
:10031000AB2F8091D60390E0880F991FAC0142511A
:100320005E4FC090DB03D090DC03E090DD03F090E3
:10033000DE0330E020E0FA01C591D491E881B901F3
:1003400090E080E0EB23EA130AC02F5F3F4F6C156B
:100350007D058E059F0578F36FEF7FEFCB01DF9171
:10036000CF91FF90EF90DF90CF900895FC01538DD7
:10037000448D252F30E0842F90E0821B930B54177F
:1003800010F0CF96089501970895FC01918D828D0C
:10039000981761F0A28DAE0FBF2FB11D5D968C91A5
:1003A000928D9F5F9F73928F90E008958FEF9FEFE4
:1003B0000895FC01918D828D981731F0828DE80FA0
:1003C000F11D858D90E008958FEF9FEF0895FC015A
:1003D000918D228D892F90E0805C9F4F821B910927
:1003E0008F7399270895FC01A48DA80FB92FB11D13
:1003F000A35ABF4F2C91848D90E001968F7399275B
:10040000848FA689B7892C93A089B1898C91837038
:1004100080648C93938D848D981306C00288F38931
:10042000E02D80818F7D80830895EF92FF920F935E
:100430001F93CF93DF93EC0181E0888F9B8D8C8D90
:1004400098131AC0E889F989808185FF15C09FB784
:10045000F894EE89FF896083E889F9898081837047
:10046000806480839FBF81E090E0DF91CF911F91F6
:100470000F91FF90EF900895F62E0B8D10E00F5F17
:100480001F4F0F731127E02E8C8D8E110CC00FB6ED
:1004900007FCFACFE889F989808185FFF5CFCE0185
:1004A0000E94F301F1CFEB8DEC0FFD2FF11DE35A0C
:1004B000FF4FF0829FB7F8940B8FEA89FB89808108
:1004C0008062CFCFCF93DF93EC01888D8823B9F082
:1004D000AA89BB89E889F9898C9185FD03C080814F
:1004E00086FD0DC00FB607FCF7CF8C9185FFF2CFCC
:1004F000808185FFEDCFCE010E94F301E9CFDF912E
:10050000CF91089589E193E00E94E70121E0892BD2
:1005100009F420E0822F089580E090E0892B29F0F3
:100520000E94820281110E94000080E090E0892BED
:1005300049F080E090E0892B29F00E9400008111B1
:100540000E94000080E090E0892B49F080E090E07C
:10055000892B29F00E94000081110E94000080E098
:1005600090E0892B49F080E090E0892B29F00E94EF
:10057000000081110C940000089508950895AF9231
:10058000BF92CF92DF92EF92FF920F931F93CF9380
:10059000DF936C017B018B01040F151FEB015E01E2
:1005A000AE18BF08C017D10759F06991D601ED9177
:1005B000FC910190F081E02DC6011995892B79F706
:1005C000C501DF91CF911F910F91FF90EF90DF90C8
:1005D000CF90BF90AF900895282F30E0F901E855F3
:1005E000FE4F9491F901E25BFD4F4491285F3D4F2E
:1005F000F9012491222309F435C0992311F1915076
:100600009231F8F4E92FF0E08827E65FFC4F8F4F36
:100610000C943F0F3B033F031C03330337032103B9
:10062000420348034C03520356035A036003640316
:10063000210368036E037203809180008F7780939B
:100640008000E22FF0E0EE0FFF1FE257FE4FA59172
:10065000B4918FB7F894EC91611148C040954E2346
:100660004C938FBF0895809180008F7DE8CF80915B
:100670008000877FE4CF84B58F7784BDE2CF84B5D7
:100680008F7DFBCF8091B0008F778093B000D9CF62
:100690008091B0008F7DF9CF809190008F7780930B
:1006A0009000CFCF809190008F7DF9CF8091900006
:1006B000877FF5CF8091A0008F778093A000C1CF76
:1006C0008091A0008F7DF9CF8091A000877FF5CF2A
:1006D000809120018F7780932001B3CF80912001FA
:1006E0008F7DF9CF80912001877FF5CF4E2BB8CF3A
:1006F000CF93DF9390E0FC01E25BFD4F2491885F94
:100700009D4FFC0184918823D1F090E0880F991FC0
:10071000FC01EC58FE4FA591B491FC01E257FE4F4D
:10072000C591D491623071F49FB7F8943C91822FB7
:10073000809583238C93E8812E2B28839FBFDF91A4
:10074000CF9108958FB7F894EC912E2B2C938FBFF7
:10075000F6CF3FB7F8948091090390910A03A091D6
:100760000B03B0910C0326B5A89B05C02F3F19F0D1
:100770000196A11DB11D3FBFBA2FA92F982F882721
:10078000BC01CD01620F711D811D911D42E0660FFC
:10079000771F881F991F4A95D1F708958F929F92CE
:1007A000AF92BF92CF92DF92EF92FF924B015C012A
:1007B0000E94A9036B017C010E94A9036C197D09A9
:1007C0008E099F09683E734081059105A8F321E0D9
:1007D000821A9108A108B10888EEC80E83E0D81EDD
:1007E000E11CF11C81149104A104B10429F7FF90CC
:1007F000EF90DF90CF90BF90AF909F908F90089533
:10080000CF92DF92EF92FF920F931F93CF93DF93DC
:10081000CDB7DEB7C054D1400FB6F894DEBF0FBEDF
:10082000CDBF2FB7F8948091150390911603A09136
:100830001703B09118032FBF4091D7035091D803ED
:100840006091D9037091DA038C019D01041B150B93
:10085000260B370BB901A801403D574061057105D2
:1008600090F48091DF03C05CDE4F0FB6F894DEBFDA
:100870000FBECDBFDF91CF911F910F91FF90EF90F1
:10088000DF90CF9008958093D7039093D803A093DF
:10089000D903B093DA031092D2031092D1031092CD
:1008A000D0031092CF031092CE0362E08091D30365
:1008B0000E94780361E070E080E090E00E94CE0347
:1008C00061E08091D3030E94780360E08091D303BC
:1008D0000E94EC028091D4038551823020F58BE296
:1008E00091E10197F1F762E08091D3030E947803D0
:1008F0008091E00390E08230910538F0880F991FD5
:10090000880F991F05970197F1F7F89480E00E94EE
:100910007E016F3F7F4F8F4F9F4F61F41092DF0337
:10092000789480E0A0CF64E170E080E090E00E94E5
:10093000CE03D9CF81E00E947E016F3F7F4F8F4F62
:100940009F4F61F38E010F5F1F4F6E018FEBC81A2F
:100950008EEFD80A780180E00E947E01F701608363
:1009600071838283938381E00E947E01F701648317
:10097000758386839783F8E0EF0EF11CEC14FD0479
:1009800051F7789430E020E0F801C080D180E28017
:10099000F3804481558166817781FFEFCF16DF06B2
:1009A000EF06FF0631F04F3F8FEF580768077807D3
:1009B00019F41092DF03B5CFF90183E0F595E795BF
:1009C0008A95E1F7E253FC4F8081880FC416D50663
:1009D000E606F70610F180832F5F3F4F085F1F4F39
:1009E0002832310589F64091D2032091CE038091BF
:1009F000CF03280F3327331F8091D003280F311DD9
:100A00008091D103820F932F911D992748171906C2
:100A100081F681E08093DF0326CF8160DCCF0895EB
:100A200020919702260F3327331F21323105ECF432
:100A30002091E002FC0190E080E0243069F082E047
:100A40000895A09197022191AC0149585D4FA40FE0
:100A5000B52FB11D2C930196861798F380919702BC
:100A6000680F6093970280E0089581E008951092E6
:100A7000E00281E08093DF021092BA0261E084E13B
:100A80000E94EC0261E085E10E94EC02E9EBF0E0FB
:100A900080818E7F808380818D7F808388E48093B6
:100AA000B80085E48093BC000895CF93DF9391E074
:100AB000909376028823B9F0C091B800D091BA0023
:100AC0008091BC008A7B8093BC0060E084E10E943E
:100AD000EC0260E085E10E94EC020E943705D093B1
:100AE000BA00C093B800DF91CF9108950895E091C6
:100AF000140380911303E81730F4F0E0EA5AFD4F35
:100B0000808190E008958FEF9FEF089590911403F6
:100B1000809113032FEF3FEF981748F4E92FF0E08F
:100B2000EA5AFD4F208130E09F5F90931403C90182
:100B300008958091130390911403891B990B0895D4
:100B4000CF92DF92EF92FF920F931F93CF93DF9399
:100B50007C01CB018A012091E602222389F0EB017E
:100B60006B01C40ED51ECC15DD0569F06991D70166
:100B7000ED91FC910190F081E02DC7011995F3CF23
:100B8000642F0E941005C801DF91CF911F910F9132
:100B9000FF90EF90DF90CF900895CF93DF931F9257
:100BA000CDB7DEB769832091E6022223F9F02091C8
:100BB0001103203258F021E030E0FC01338322831E
:100BC00090E080E00F90DF91CF9108958091120323
:100BD000E82FF0E0E951FD4F998190838F5F80937A
:100BE00012038093110381E090E0ECCF61E0CE012D
:100BF00001960E941005F7CFCF92DF92EF92FF92FD
:100C00000F931F93CF93DF93FC01C48121E02093C6
:100C1000E602C0930703109212031092110383851A
:100C2000682B86EB93E00E94CD05D0911103D13261
:100C300008F092C00E94A9036B017C018091E00240
:100C4000811165C082E08093E00281E08093DF0241
:100C50008FEF8093DE021092DD02D093DC02A7EECC
:100C6000B2E0ECEBF2E080E0D81385C01092BB025A
:100C70008091BB02CC0FC82BC093BB028091BA02FB
:100C8000813009F07CC01092BA020E94A9036B0166
:100C90007C018091BB028093BB008091E202909125
:100CA000E302A091E402B091E502892B8A2B8B2B01
:100CB00099F00E94A9030091E2021091E3022091B1
:100CC000E4023091E5026C197D098E099F0906172F
:100CD000170728073907E0F18091BC0083FDD9CFC1
:100CE00085EC8093BC000E94A9036B017C0180917C
:100CF000E002823009F445C08091DE028F3F61F14D
:100D00008091DE02803241F18091DE0225C0809127
:100D1000E2029091E302A091E402B091E502892BF6
:100D20008A2B8B2B09F48ACF0E94A9030091E2023F
:100D30001091E3022091E4023091E5026C197D09E3
:100D40008E099F09061717072807390708F076CF7D
:100D50008091E1020E945505109212031092110336
:100D60001092E602DF91CF911F910F91FF90EF90CB
:100D7000DF90CF9008959D9191938F5F75CF85EE11
:100D8000B0CF8091E2029091E302A091E402B09191
:100D9000E502892B8A2B8B2B09F4A9CF0E94A9038A
:100DA0000091E2021091E3022091E4023091E50209
:100DB0006C197D098E099F0906171707280739073F
:100DC00008F095CFC5CF90E080E00895FC01019038
:100DD0000020E9F73197AF01481B590BBC0182ECA9
:100DE00093E00C94BF028F929F92AF92BF920F93A9
:100DF0001F93CF93DF93CDB7DEB7A1970FB6F894CB
:100E0000DEBF0FBECDBF19A2423008F44AE08E010A
:100E10000F5D1F4F842E912CB12CA12CA5019401A4
:100E20000E941D0FE62FB901CA01EA30F4F4E05D1B
:100E3000D801EE938D01232B242B252B79F790E0FD
:100E400080E0109719F0CD010E94E606A1960FB63A
:100E5000F894DEBF0FBECDBFDF91CF911F910F91F0
:100E6000BF90AF909F908F900895E95CE1CF0F9372
:100E70001F93CF938C01C62F0E94FC056C2F6460DA
:100E8000C8010E94FC056C2F6B7FC8010E94FC0505
:100E900083EC90E00197F1F7CF911F910F910895A6
:100EA0000F931F93CF93DF938C01D62FC42F607FB6
:100EB000642B0E94370780E1D89FB00111246C2B6E
:100EC000C801DF91CF911F910F910C94370741E03A
:100ED0000E94500781E090E008954F925F926F92D8
:100EE0007F928F929F92AF92BF92CF92DF92EF92BA
:100EF000FF920F931F93CF936B017C01742EAC0173
:100F00009B010E94180F882399F088E392E0CF910B
:100F10001F910F91FF90EF90DF90CF90BF90AF9017
:100F20009F908F907F906F905F904F900C94E6060B
:100F300046015701E894B7F82FEF3FEF4FE75FE71F
:100F4000C501B4010E94180F81110DC02FEF3FEFB2
:100F50004FE75FE7C501B4010E944E0D18161CF45F
:100F60008CE392E0D4CF2FEF3FEF4FE75FE4C70170
:100F7000B6010E94A60E18161CF480E492E0C7CFBA
:100F80002FEF3FEF4FE75FECC701B6010E944E0D18
:100F900087FDF3CF20E030E0A901C701B6010E9430
:100FA0004E0D10E000E087FF0CC041E06DE282ECE6
:100FB00093E00E945007F7FAF094F7F8F09401E0FC
:100FC00010E0C0E060E070E080E09FE37C1641F05C
:100FD00020E030E040E251E40E94530DCF5FF6CFB5
:100FE000A70196010E94E20C4B015C010E94C50D15
:100FF0002B013C014AE00E94F306080F191FCC2385
:10100000C9F1C301B2010E94F40D9B01AC01C501FD
:10101000B4010E94E10C4B015C0141E06EE282EC04
:1010200093E00E9450070F5F1F4FC15018F120E05E
:1010300030E040E251E4C501B4010E94AB0E2B0147
:101040003C010E94C50D4B01B12CA12C4AE0C50109
:10105000B4010E94F306080F191FC501B4010E94D4
:10106000F40D9B01AC01C301B2010E94E10C4B01E4
:101070005C01DBCFC801CF911F910F91FF90EF90E2
:10108000DF90CF90BF90AF909F908F907F906F90A8
:101090005F904F900895CF93DF9300D000D01F92C0
:1010A0001F92CDB7DEB798E0E0E0F2E0DE011196E6
:1010B00001900D929A95E1F79091CA03981708F460
:1010C0008FEF90E0880F991F21E030E02C0F3D1F3B
:1010D000820F931FFC016081606840E082EC93E026
:1010E00028960FB6F894DEBF0FBECDBFDF91CF912B
:1010F0000C94500785ED8093BC008091E2029091A2
:10110000E302A091E402B091E5020796A11DB11D92
:1011100023E0B695A795979587952A95D1F72091C5
:10112000BC0024FD03C01092E00208954091E20249
:101130005091E3026091E4027091E502452B462B49
:10114000472B69F30097A105B10541F025E32A95E6
:10115000F1F700000197A109B109E1CF8091E10207
:101160000C9455051F920F920FB60F9211240BB6D7
:101170000F922F933F934F935F936F937F938F9330
:101180009F93AF93BF93EF93FF9389E193E00E9406
:10119000F301FF91EF91BF91AF919F918F917F915B
:1011A0006F915F914F913F912F910F900BBE0F90D8
:1011B0000FBE0F901F9018951F920F920FB60F92AF
:1011C00011240BB60F922F938F939F93EF93FF935E
:1011D000E0912903F0912A038081E0912F03F0919F
:1011E000300382FD1DC09081809132038F5F8F7329
:1011F00020913303821741F0E0913203F0E0E75E83
:10120000FC4F958F80933203FF91EF919F918F91C7
:101210002F910F900BBE0F900FBE0F901F9018953F
:101220008081F2CF1F920F920FB60F9211242F934D
:101230003F938F939F93AF93BF93809115039091AA
:101240001603A0911703B09118033091080323E00F
:10125000230F2D3758F50196A11DB11D20930803CA
:101260008093150390931603A0931703B09318036C
:101270008091090390910A03A0910B03B0910C0394
:101280000196A11DB11D8093090390930A03A093B9
:101290000B03B0930C03BF91AF919F918F913F913E
:1012A0002F910F900FBE0F901F90189526E8230FD7
:1012B0000296A11DB11DD2CF1F920F920FB60F92B1
:1012C00011240BB60F922F933F934F935F936F931D
:1012D0007F938F939F93AF93BF93EF93FF938091EF
:1012E000B900887F803609F44DC008F040C08832CC
:1012F00009F4A9C028F5803109F49DC0C8F48823F9
:1013000009F4FBC0883009F496C0FF91EF91BF91BA
:10131000AF919F918F917F916F915F914F913F918D
:101320002F910F900BBE0F900FBE0F901F9018952E
:10133000883109F488C0803241F78093DE0214C0FE
:10134000803409F49DC040F48033B9F38833E9F662
:101350008093DE0285ECB0C0803509F485C0883505
:1013600009F496C0883489F60E947A08CECF88396D
:1013700009F48CC038F5883729F050F4883611F01C
:10138000803719F683E08093E0021092B90257C0CB
:10139000883809F47BC0803919F0803809F0B5CF5E
:1013A0008091B902803208F071C0E091B90281E009
:1013B0008E0F8093B9028091BB00F0E0E756FD4F9D
:1013C00080833DC0803B39F0E0F4803A09F479C075
:1013D000883A09F09ACF84E08093E0021092980254
:1013E00010929702E0910F03F091100319958091EC
:1013F000970281110FC081E08093970210927702CB
:1014000009C0803C09F4A6CF883C09F4A3CF883BEF
:1014100009F07BCFE091980281E08E0F80939802D3
:10142000F0E0E958FD4F80818093BB0090919802D5
:101430008091970229C08091BB028093BB0085EC0C
:101440008093BC0062CF9091DD028091DC029817FE
:1014500058F5E091DD0281E08E0F8093DD02F0E02F
:10146000E454FD4F8081E9CFE091DD0281E08E0FF1
:101470008093DD028091BB00F0E0E454FD4F808357
:101480009091DD028091DC029817C8F285E8D8CFF0
:10149000E091DD0281E08E0F8093DD028091BB0040
:1014A000F0E0E454FD4F80838091DF0281115CCF36
:1014B00081E08093BA0284EA8093BC001092E0023B
:1014C00024CF85EC8093BC001092E0028091B90299
:1014D000803230F4E091B902F0E0E756FD4F10821F
:1014E0006091B90270E0E0910D03F0910E0389E97B
:1014F00092E019951092B90208CF1092DE0234CF13
:10150000E9E1F3E01382128288EE93E0A0E0B0E01C
:1015100084839583A683B7832CE032E031832083D4
:1015200025EC30E03587248724EC30E037872687A8
:1015300020EC30E0318B208B21EC30E0338B228BA0
:1015400022EC30E0358B248B26EC30E0378B268B79
:10155000118E128E138E148EE6EBF3E0138212823C
:1015600084839583A683B7838EE192E09183808301
:10157000AEECB3E082E015968C9315979BE016963F
:101580009C931697E0E5F2E0E4911796EC93179799
:10159000EAE0F2E0E4911896EC93189740E85EE3F5
:1015A00060E070E01D964D935D936D937C93509732
:1015B000E2ECF3E01382128220E332E031832083F5
:1015C00097E2948390E191878287138608957894B7
:1015D00084B5826084BD84B5816084BD85B5826038
:1015E00085BD85B5816085BD80916E0081608093E9
:1015F0006E00109281008091810082608093810052
:101600008091810081608093810080918000816061
:10161000809380008091B10084608093B1008091BC
:10162000B00081608093B0008091910082608093CF
:101630009100809191008160809391008091900051
:101640008160809390008091A10082608093A100CE
:101650008091A10081608093A1008091A0008160B1
:101660008093A0008091210182608093210180916C
:10167000210181608093210180912001816080930C
:10168000200180917A00846080937A0080917A00B2
:10169000826080937A0080917A00816080937A00E2
:1016A00080917A00806880937A001092C10061E096
:1016B00089E00E94780362E08091D3030E9478035E
:1016C0002FB7F8948091150390911603A0911703FA
:1016D000B09118032FBF805D9740A109B109809395
:1016E000D7039093D803A093D903B093DA0387E389
:1016F0008093E003109214031092130310921203CC
:10170000109211030E9437058DEB92E09093100325
:1017100080930F038EEB92E090930E0380930D0362
:101720001092C7038091CC03823018F098E0909318
:10173000C7038093CA0362E370E080E090E00E94F8
:10174000CE036091CD0382EC93E00E94FC0568EE2D
:1017500073E080E090E00E94CE0360E382EC93E0CF
:101760000E943707CBE4D6E4CE010197F1F760E39E
:1017700082EC93E00E9437072197F1F760E382EC57
:1017800093E00E94370783E592E00197F1F760E26A
:1017900082EC93E00E9437076091C703606240E0EB
:1017A00082EC93E00E94500784E08093C80340E0FD
:1017B0006CE082EC93E00E94500740E061E082EC34
:1017C00093E00E945007CBE3DFE1CE010197F1F7F0
:1017D00082E08093C90340E066E082EC93E00E94DF
:1017E000500740E062E082EC93E00E9450072197AE
:1017F000F1F788E08093CD0360E082EC93E00E94F3
:10180000FC0564E670E080E090E00E94CE030E9458
:101810000004882349F08091D4038B3028F08D3068
:1018200050F085518230C0F1812C912C20ECA22EF9
:101830002FE7B22E1EC06091CF0370E090E080E0F1
:101840000E94F60D2DEC3CEC4CEC5DE30E94AB0EDF
:101850006B017C016091CE0370E090E080E00E941B
:10186000F60D9B01AC01C701B6010E94E20C4B01D1
:101870005C010E940004882341F08091D4038C30E5
:1018800009F47AC0D8F48B3091F1C12CD12C80ECC2
:10189000E82E8FE7F82E55C06091CE037091CF03EC
:1018A00076276727762790E080E00E94F40D2DECE4
:1018B0003CEC4CEC5DE30E94AB0ED9CF85518230FD
:1018C00020F7C091D0036C2F70E0762F6627662733
:1018D0007F778091D103682B90E080E00E94F40D27
:1018E0002DEC3CEC4CEC5DE30E94AB0E61C06091D2
:1018F000D00370E090E080E00E94F40D6B017C0169
:10190000C091D103C7FF0AC0AC019B0160E070E049
:1019100080E89FEB0E94E10C6B017C01CF706C2F83
:1019200070E090E080E00E94F60D2DEC3CEC4CEC79
:101930005DE30E94AB0EA70196010E94E20C6B01D1
:101940007C0180E00E944B0884E492E00E94E6065D
:1019500042E0C701B6010E946D0781E00E944B087A
:101960008BE492E00E94E60642E0C501B4010E94C9
:101970006D070E948C0245CFC091D0036C2F70E0A0
:1019800090E080E00E94F40D6B017C016091D10336
:101990006F7070E090E080E00E94F60D2DEC3CEC62
:1019A0004CEC5DE30E94AB0EA70196010E94E20C95
:1019B0006B017C01C7FFC5CFF7FAF094F7F8F094FC
:1019C000C0CF5058BB27AA270E94F90C0C946C0E6C
:1019D0000E945E0E38F00E94650E20F039F49F3FA1
:1019E00019F426F40C945B0E0EF4E095E7FB0C94CE
:1019F000550EE92F0E947D0E58F3BA176207730740
:101A00008407950720F079F4A6F50C949F0E0EF448
:101A1000E0950B2EBA2FA02D0B01B90190010C01FE
:101A2000CA01A0011124FF27591B99F0593F50F416
:101A3000503E68F11A16F040A22F232F342F44276E
:101A4000585FF3CF469537952795A795F040539566
:101A5000C9F77EF41F16BA0B620B730B840BBAF036
:101A60009150A1F0FF0FBB1F661F771F881FC2F7A1
:101A70000EC0BA0F621F731F841F48F487957795B5
:101A80006795B795F7959E3F08F0B0CF9395880F6F
:101A900008F09927EE0F9795879508950E94310ECB
:101AA00008F481E008950E94670D0C946C0E0E946A
:101AB000650E58F00E945E0E40F029F45F3F29F059
:101AC0000C94550E51110C94A00E0C945B0E0E94B8
:101AD0007D0E68F39923B1F3552391F3951B550BB4
:101AE000BB27AA2762177307840738F09F5F5F4FF1
:101AF000220F331F441FAA1FA9F335D00E2E3AF030
:101B0000E0E832D091505040E695001CCAF72BD047
:101B1000FE2F29D0660F771F881FBB1F2617370798
:101B20004807AB07B0E809F0BB0B802DBF01FF27CA
:101B300093585F4F3AF09E3F510578F00C94550E44
:101B40000C94A00E5F3FE4F3983ED4F3869577950E
:101B50006795B795F7959F5FC9F7880F911D969583
:101B6000879597F90895E1E0660F771F881FBB1FDF
:101B7000621773078407BA0720F0621B730B840B8C
:101B8000BA0BEE1F88F7E09508950E94850E88F045
:101B90009F5798F0B92F9927B751B0F0E1F0660F31
:101BA000771F881F991F1AF0BA95C9F714C0B13072
:101BB00091F00E949F0EB1E008950C949F0E672F44
:101BC000782F8827B85F39F0B93FCCF386957795A1
:101BD0006795B395D9F73EF490958095709561958A
:101BE0007F4F8F4F9F4F0895E89409C097FB3EF4B5
:101BF00090958095709561957F4F8F4F9F4F99235A
:101C0000A9F0F92F96E9BB279395F69587957795D7
:101C10006795B795F111F8CFFAF4BB0F11F460FF97
:101C20001BC06F5F7F4F8F4F9F4F16C0882311F0EF
:101C300096E911C0772321F09EE8872F762F05C003
:101C4000662371F096E8862F70E060E02AF09A959E
:101C5000660F771F881FDAF7880F9695879597F993
:101C60000895990F0008550FAA0BE0E8FEEF16162D
:101C70001706E807F907C0F012161306E407F50780
:101C800098F0621B730B840B950B39F40A2661F0F4
:101C9000232B242B252B21F408950A2609F4A14097
:101CA000A6958FEF811D811D089597F99F6780E8A4
:101CB00070E060E008959FEF80EC089500240A949E
:101CC0001616170618060906089500240A94121617
:101CD0001306140605060895092E0394000C11F44A
:101CE000882352F0BB0F40F4BF2B11F460FF04C0F7
:101CF0006F5F7F4F8F4F9F4F089557FD9058440F50
:101D0000551F59F05F3F71F04795880F97FB991F5A
:101D100061F09F3F79F08795089512161306140617
:101D2000551FF2CF4695F1DF08C0161617061806A4
:101D3000991FF1CF86957105610508940895E8947F
:101D4000BB2766277727CB0197F908950E94310EAC
:101D500008F48FEF08950E94BE0E0C946C0E0E9442
:101D60005E0E38F00E94650E20F0952311F00C9461
:101D7000550E0C945B0E11240C94A00E0E947D0E47
:101D800070F3959FC1F3950F50E0551F629FF001CE
:101D9000729FBB27F00DB11D639FAA27F00DB11DE7
:101DA000AA1F649F6627B00DA11D661F829F222770
:101DB000B00DA11D621F739FB00DA11D621F839FF7
:101DC000A00D611D221F749F3327A00D611D231FCD
:101DD000849F600D211D822F762F6A2F11249F571B
:101DE00050409AF0F1F088234AF0EE0FFF1FBB1F1E
:101DF000661F771F881F91505040A9F79E3F5105DD
:101E000080F00C94550E0C94A00E5F3FE4F3983EC6
:101E1000D4F3869577956795B795F795E7959F5F86
:101E2000C1F7FE2B880F911D9695879597F9089518
:101E30000E94310E880B990B0895A1E21A2EAA1B5D
:101E4000BB1BFD010DC0AA1FBB1FEE1FFF1FA2176A
:101E5000B307E407F50720F0A21BB30BE40BF50B67
:101E6000661F771F881F991F1A9469F760957095F0
:101E7000809590959B01AC01BD01CF010895EE0FB7
:101E8000FF1F881F8BBF0790F691E02D1994F894DF
:021E9000FFCF82
:101E92000000400014005400000000001502BF02C0
:101EA200B6016202E701C501D90100000000CD05BB
:101EB200A005E30676059905860577050000000072
:101EC2006707BF02E3060F056E616E00696E66006A
:101ED2006F76660054656D703A200048756D6964CE
:061EE2006974793A20004A
:00000001FF
